{
  "_format": "hh-sol-artifact-1",
  "contractName": "Lottery",
  "sourceName": "contracts/Lottery.sol",
  "abi": [
    {
      "inputs": [],
      "stateMutability": "nonpayable",
      "type": "constructor"
    },
    {
      "anonymous": false,
      "inputs": [
        {
          "indexed": true,
          "internalType": "address payable",
          "name": "new_Player",
          "type": "address"
        },
        {
          "indexed": true,
          "internalType": "uint256",
          "name": "lotteryNo",
          "type": "uint256"
        }
      ],
      "name": "newPlayer",
      "type": "event"
    },
    {
      "anonymous": false,
      "inputs": [
        {
          "indexed": true,
          "internalType": "address payable",
          "name": "winner",
          "type": "address"
        },
        {
          "indexed": false,
          "internalType": "uint256",
          "name": "lotteryNo",
          "type": "uint256"
        }
      ],
      "name": "playerWon",
      "type": "event"
    },
    {
      "inputs": [],
      "name": "enterLottery",
      "outputs": [],
      "stateMutability": "payable",
      "type": "function"
    },
    {
      "inputs": [],
      "name": "getBalance",
      "outputs": [
        {
          "internalType": "uint256",
          "name": "",
          "type": "uint256"
        }
      ],
      "stateMutability": "view",
      "type": "function"
    },
    {
      "inputs": [
        {
          "internalType": "uint256",
          "name": "id",
          "type": "uint256"
        }
      ],
      "name": "getLotetryHistoryByID",
      "outputs": [
        {
          "internalType": "address payable",
          "name": "",
          "type": "address"
        }
      ],
      "stateMutability": "view",
      "type": "function"
    },
    {
      "inputs": [],
      "name": "getLotteryHistory",
      "outputs": [
        {
          "internalType": "address payable",
          "name": "",
          "type": "address"
        }
      ],
      "stateMutability": "view",
      "type": "function"
    },
    {
      "inputs": [],
      "name": "getOwner",
      "outputs": [
        {
          "internalType": "address",
          "name": "",
          "type": "address"
        }
      ],
      "stateMutability": "view",
      "type": "function"
    },
    {
      "inputs": [],
      "name": "getPlayers",
      "outputs": [
        {
          "internalType": "address payable[]",
          "name": "",
          "type": "address[]"
        }
      ],
      "stateMutability": "view",
      "type": "function"
    },
    {
      "inputs": [],
      "name": "getRandomNumber",
      "outputs": [
        {
          "internalType": "uint256",
          "name": "",
          "type": "uint256"
        }
      ],
      "stateMutability": "view",
      "type": "function"
    },
    {
      "inputs": [
        {
          "internalType": "uint256",
          "name": "",
          "type": "uint256"
        }
      ],
      "name": "lottery_History",
      "outputs": [
        {
          "internalType": "address payable",
          "name": "",
          "type": "address"
        }
      ],
      "stateMutability": "view",
      "type": "function"
    },
    {
      "inputs": [],
      "name": "lottery_ID",
      "outputs": [
        {
          "internalType": "uint256",
          "name": "",
          "type": "uint256"
        }
      ],
      "stateMutability": "view",
      "type": "function"
    },
    {
      "inputs": [],
      "name": "pickWinner",
      "outputs": [],
      "stateMutability": "nonpayable",
      "type": "function"
    }
  ],
  "bytecode": "0x608060405234801561001057600080fd5b50336000806101000a81548173ffffffffffffffffffffffffffffffffffffffff021916908373ffffffffffffffffffffffffffffffffffffffff16021790555060018081905550610f60806100676000396000f3fe6080604052600436106100915760003560e01c80638b5b9ccc116100595780638b5b9ccc1461016b578063c1af578514610196578063dbdff2c1146101a0578063e930cb53146101cb578063f74b6de81461020857610091565b806307bf77091461009657806312065fe0146100d35780633149c427146100fe5780635d495aea14610129578063893d20e814610140575b600080fd5b3480156100a257600080fd5b506100bd60048036038101906100b8919061092a565b610233565b6040516100ca9190610998565b60405180910390f35b3480156100df57600080fd5b506100e8610266565b6040516100f591906109c2565b60405180910390f35b34801561010a57600080fd5b5061011361026e565b6040516101209190610998565b60405180910390f35b34801561013557600080fd5b5061013e6102b6565b005b34801561014c57600080fd5b50610155610580565b60405161016291906109fe565b60405180910390f35b34801561017757600080fd5b506101806105a9565b60405161018d9190610ad7565b60405180910390f35b61019e610637565b005b3480156101ac57600080fd5b506101b561072b565b6040516101c291906109c2565b60405180910390f35b3480156101d757600080fd5b506101f260048036038101906101ed919061092a565b61077f565b6040516101ff9190610998565b60405180910390f35b34801561021457600080fd5b5061021d610842565b60405161022a91906109c2565b60405180910390f35b60036020528060005260406000206000915054906101000a900473ffffffffffffffffffffffffffffffffffffffff1681565b600047905090565b600060036000600180546102829190610b28565b815260200190815260200160002060009054906101000a900473ffffffffffffffffffffffffffffffffffffffff16905090565b60008054906101000a900473ffffffffffffffffffffffffffffffffffffffff1673ffffffffffffffffffffffffffffffffffffffff163373ffffffffffffffffffffffffffffffffffffffff1614610344576040517f08c379a000000000000000000000000000000000000000000000000000000000815260040161033b90610bdf565b60405180910390fd5b600060028054905061035461072b565b61035e9190610c2e565b90506002818154811061037457610373610c5f565b5b9060005260206000200160009054906101000a900473ffffffffffffffffffffffffffffffffffffffff1673ffffffffffffffffffffffffffffffffffffffff166108fc479081150290604051600060405180830381858888f193505050501580156103e4573d6000803e3d6000fd5b50600281815481106103f9576103f8610c5f565b5b9060005260206000200160009054906101000a900473ffffffffffffffffffffffffffffffffffffffff1660036000600154815260200190815260200160002060006101000a81548173ffffffffffffffffffffffffffffffffffffffff021916908373ffffffffffffffffffffffffffffffffffffffff1602179055506002818154811061048b5761048a610c5f565b5b9060005260206000200160009054906101000a900473ffffffffffffffffffffffffffffffffffffffff1673ffffffffffffffffffffffffffffffffffffffff167fdc145ea5bc9fc83bd3082362387119ada53cdcabbef6e6669e25e3ef29289e796001546040516104fd91906109c2565b60405180910390a26001600081548092919061051890610c8e565b9190505550600067ffffffffffffffff81111561053857610537610cd6565b5b6040519080825280602002602001820160405280156105665781602001602082028036833780820191505090505b506002908051906020019061057c929190610848565b5050565b60008060009054906101000a900473ffffffffffffffffffffffffffffffffffffffff16905090565b6060600280548060200260200160405190810160405280929190818152602001828054801561062d57602002820191906000526020600020905b8160009054906101000a900473ffffffffffffffffffffffffffffffffffffffff1673ffffffffffffffffffffffffffffffffffffffff16815260200190600101908083116105e3575b5050505050905090565b662386f26fc100003411610680576040517f08c379a000000000000000000000000000000000000000000000000000000000815260040161067790610d77565b60405180910390fd5b6002339080600181540180825580915050600190039060005260206000200160009091909190916101000a81548173ffffffffffffffffffffffffffffffffffffffff021916908373ffffffffffffffffffffffffffffffffffffffff1602179055506001543373ffffffffffffffffffffffffffffffffffffffff167f4222113ad602ab085918ce130c46367c8d7ea76f6710b09d0d47c28a3f9598f460405160405180910390a3565b60008060009054906101000a900473ffffffffffffffffffffffffffffffffffffffff1642604051602001610761929190610e00565b6040516020818303038152906040528051906020012060001c905090565b60008082036107c3576040517f08c379a00000000000000000000000000000000000000000000000000000000081526004016107ba90610e78565b60405180910390fd5b6001548210610807576040517f08c379a00000000000000000000000000000000000000000000000000000000081526004016107fe90610f0a565b60405180910390fd5b6003600083815260200190815260200160002060009054906101000a900473ffffffffffffffffffffffffffffffffffffffff169050919050565b60015481565b8280548282559060005260206000209081019282156108c1579160200282015b828111156108c05782518260006101000a81548173ffffffffffffffffffffffffffffffffffffffff021916908373ffffffffffffffffffffffffffffffffffffffff16021790555091602001919060010190610868565b5b5090506108ce91906108d2565b5090565b5b808211156108eb5760008160009055506001016108d3565b5090565b600080fd5b6000819050919050565b610907816108f4565b811461091257600080fd5b50565b600081359050610924816108fe565b92915050565b6000602082840312156109405761093f6108ef565b5b600061094e84828501610915565b91505092915050565b600073ffffffffffffffffffffffffffffffffffffffff82169050919050565b600061098282610957565b9050919050565b61099281610977565b82525050565b60006020820190506109ad6000830184610989565b92915050565b6109bc816108f4565b82525050565b60006020820190506109d760008301846109b3565b92915050565b60006109e882610957565b9050919050565b6109f8816109dd565b82525050565b6000602082019050610a1360008301846109ef565b92915050565b600081519050919050565b600082825260208201905092915050565b6000819050602082019050919050565b610a4e81610977565b82525050565b6000610a608383610a45565b60208301905092915050565b6000602082019050919050565b6000610a8482610a19565b610a8e8185610a24565b9350610a9983610a35565b8060005b83811015610aca578151610ab18882610a54565b9750610abc83610a6c565b925050600181019050610a9d565b5085935050505092915050565b60006020820190508181036000830152610af18184610a79565b905092915050565b7f4e487b7100000000000000000000000000000000000000000000000000000000600052601160045260246000fd5b6000610b33826108f4565b9150610b3e836108f4565b9250828203905081811115610b5657610b55610af9565b5b92915050565b600082825260208201905092915050565b7f596f7520617265206e6f7420616c6c6f77656420746f2061636365737320746860008201527f69732066756e6374696f6e2e0000000000000000000000000000000000000000602082015250565b6000610bc9602c83610b5c565b9150610bd482610b6d565b604082019050919050565b60006020820190508181036000830152610bf881610bbc565b9050919050565b7f4e487b7100000000000000000000000000000000000000000000000000000000600052601260045260246000fd5b6000610c39826108f4565b9150610c44836108f4565b925082610c5457610c53610bff565b5b828206905092915050565b7f4e487b7100000000000000000000000000000000000000000000000000000000600052603260045260246000fd5b6000610c99826108f4565b91507fffffffffffffffffffffffffffffffffffffffffffffffffffffffffffffffff8203610ccb57610cca610af9565b5b600182019050919050565b7f4e487b7100000000000000000000000000000000000000000000000000000000600052604160045260246000fd5b7f596f7520646f6e7420686176652073756666696369656e7420616d6f756e742060008201527f666f7220706172696369706174696e6720696e206c6f74746572792e00000000602082015250565b6000610d61603c83610b5c565b9150610d6c82610d05565b604082019050919050565b60006020820190508181036000830152610d9081610d54565b9050919050565b60008160601b9050919050565b6000610daf82610d97565b9050919050565b6000610dc182610da4565b9050919050565b610dd9610dd4826109dd565b610db6565b82525050565b6000819050919050565b610dfa610df5826108f4565b610ddf565b82525050565b6000610e0c8285610dc8565b601482019150610e1c8284610de9565b6020820191508190509392505050565b7f496e76616c6964204c6f74746572792069642e00000000000000000000000000600082015250565b6000610e62601383610b5c565b9150610e6d82610e2c565b602082019050919050565b60006020820190508181036000830152610e9181610e55565b9050919050565b7f54686973206c6f747465727920686173206e6f74206265656e20706c6179656460008201527f207965742e000000000000000000000000000000000000000000000000000000602082015250565b6000610ef4602583610b5c565b9150610eff82610e98565b604082019050919050565b60006020820190508181036000830152610f2381610ee7565b905091905056fea2646970667358221220ba0d18bd115386bb93e02f406e0c9f15e85593a4c047b9f142effabbbff6a5cc64736f6c63430008130033",
  "linkReferences": {},
  "deployedLinkReferences": {}
}